:100000000C949E000C94BB000C94BB000C94BB00A1
:100010000C94BB000C94BB000C94BB000C94BB0074
:100020000C94BB000C94BB000C94BB000C94BB0064
:100030000C94BB000C94BB000C94BB000C94BB0054
:100040000C94BB000C94BB000C94BB000C94BB0044
:100050000C94BB000C94BB000C94BB000C94BB0034
:100060000C94BB000C94BB000A0A0D39444F462087
:10007000494D55204669726D77617265207632323E
:10008000200A0D3D3D3D3D3D3D3D3D3D3D3D3D3D20
:100090003D3D3D3D3D3D3D3D3D3D3D3D3D000A0D30
:1000A0005B315D416363656C65726F6D657465722C
:1000B0003A204144584C333435200A0D005B325D00
:1000C0004D61676E65746F6D657465723A20484D59
:1000D0004335383833200A0D005B335D4779726F42
:1000E00073636F70653A204954472D3332303020A6
:1000F0000A0D005B345D526177204F757470757422
:100100000A0D005B355D4368616E6765204261756D
:100110006420526174653A20005B4374726C2B7AE0
:100120005D546F67676C65204175746F72756E0AF8
:100130000D005B3F5D48656C700A0D0011241FBE09
:10014000CFEFD8E0DEBFCDBF15E0A0E0B1E0E0EC3E
:10015000FAE202C005900D92AE35B107D9F715E06D
:10016000AEE5B5E001C01D92AE36B107E1F70E94E1
:100170003E120C945E150C940000BC018091B900F5
:100180008E7F8093B9008091B9008D7F8093B900F4
:1001900080ED97E00E945412603130F0862F90E09D
:1001A000409795958795682F6093B800089588E2E9
:1001B00090E00E94BD00ECEBF0E0808184608083E1
:1001C00008953C9A84EA8093BC00089584E9809362
:1001D000BC00089520E030E002C02F5F3F4F8091C7
:1001E000BC0087FD03C02A353105B9F7089588237F
:1001F00029F08091BC008F70806C04C08091BC009D
:100200008F7080688093BC0008958091BB00089532
:100210008091B90008950BC020E0000000000000AC
:100220000000000000002F5F2A35B9F70197009702
:1002300099F708951F93182F81E090E00E940B0119
:100240003C9A1093BB0084E88093BC001F910895F2
:100250003C9A84EA8093BC0020E030E002C02F5F2B
:100260003F4F8091BC0087FD03C02A353105B9F7A7
:1002700086EA0E941A0120E030E002C02F5F3F4F63
:100280008091BC0087FD03C02A353105B9F78DE2A6
:100290000E941A0120E030E002C02F5F3F4F8091A2
:1002A000BC0087FD03C02A353105B9F788E00E94FC
:1002B0001A0120E030E002C02F5F3F4F8091BC0068
:1002C00087FD03C02A353105B9F784E98093BC0066
:1002D0003C9A84EA8093BC0020E030E002C02F5FAB
:1002E0003F4F8091BC0087FD03C02A353105B9F727
:1002F00086EA0E941A0120E030E002C02F5F3F4FE3
:100300008091BC0087FD03C02A353105B9F781E330
:100310000E941A0120E030E002C02F5F3F4F809121
:10032000BC0087FD03C02A353105B9F788E00E947B
:100330001A0120E030E002C02F5F3F4F8091BC00E7
:1003400087FD03C02A353105B9F784E98093BC00E5
:1003500008953C9A84EA8093BC0020E030E002C01B
:100360002F5F3F4F8091BC0087FD03C02A353105C8
:10037000B9F780ED0E941A0120E030E002C02F5F43
:100380003F4F8091BC0087FD03C02A353105B9F786
:100390008EE30E941A0120E030E002C02F5F3F4F41
:1003A0008091BC0087FD03C02A353105B9F780E88C
:1003B0000E941A0120E030E002C02F5F3F4F809181
:1003C000BC0087FD03C02A353105B9F784E9809365
:1003D000BC008AE090E00E940B013C9A84EA809382
:1003E000BC0020E030E002C02F5F3F4F8091BC0096
:1003F00087FD03C02A353105B9F780ED0E941A0147
:1004000020E030E002C02F5F3F4F8091BC0087FDAD
:1004100003C02A353105B9F786E10E941A0120E0B0
:1004200030E002C02F5F3F4F8091BC0087FD03C0CA
:100430002A353105B9F788E10E941A0120E030E041
:1004400002C02F5F3F4F8091BC0087FD03C02A355B
:100450003105B9F784E98093BC008AE090E00E94FE
:100460000B013C9A84EA8093BC0020E030E002C09B
:100470002F5F3F4F8091BC0087FD03C02A353105B7
:10048000B9F780ED0E941A0120E030E002C02F5F32
:100490003F4F8091BC0087FD03C02A353105B9F775
:1004A0008EE30E941A0120E030E002C02F5F3F4F30
:1004B0008091BC0087FD03C02A353105B9F780E083
:1004C0000E941A0120E030E002C02F5F3F4F809170
:1004D000BC0087FD03C02A353105B9F784E9809354
:1004E000BC0008953C9A84EA8093BC0020E030E090
:1004F00002C02F5F3F4F8091BC0087FD03C02A35AB
:100500003105B9F78CE30E941A0120E030E002C007
:100510002F5F3F4F8091BC0087FD03C02A35310516
:10052000B9F780E00E941A0120E030E002C02F5F9E
:100530003F4F8091BC0087FD03C02A353105B9F7D4
:1005400080E70E941A0120E030E002C02F5F3F4F99
:100550008091BC0087FD03C02A353105B9F784E9D5
:100560008093BC003C9A84EA8093BC0020E030E099
:1005700002C02F5F3F4F8091BC0087FD03C02A352A
:100580003105B9F78CE30E941A0120E030E002C087
:100590002F5F3F4F8091BC0087FD03C02A35310596
:1005A000B9F781E00E941A0120E030E002C02F5F1D
:1005B0003F4F8091BC0087FD03C02A353105B9F754
:1005C00080EA0E941A0120E030E002C02F5F3F4F16
:1005D0008091BC0087FD03C02A353105B9F784E955
:1005E0008093BC003C9A84EA8093BC0020E030E019
:1005F00002C02F5F3F4F8091BC0087FD03C02A35AA
:100600003105B9F78CE30E941A0120E030E002C006
:100610002F5F3F4F8091BC0087FD03C02A35310515
:10062000B9F782E00E941A0120E030E002C02F5F9B
:100630003F4F8091BC0087FD03C02A353105B9F7D3
:1006400080E00E941A0120E030E002C02F5F3F4F9F
:100650008091BC0087FD03C02A353105B9F784E9D4
:100660008093BC0008951F930E9472023C9A84EA12
:100670008093BC0020E030E002C02F5F3F4F8091AC
:10068000BC0087FD03C02A353105B9F78DE30E9410
:100690001A0120E030E002C02F5F3F4F8091BC0084
:1006A00087FD03C02A353105B9F78FEF0E94F700A7
:1006B00020E030E002C02F5F3F4F8091BC0087FDFB
:1006C00003C02A353105B9F71091BB0020E030E0B6
:1006D00002C02F5F3F4F8091BC0087FD03C02A35C9
:1006E0003105B9F78FEF0E94F70020E030E002C03B
:1006F0002F5F3F4F8091BC0087FD03C02A35310535
:10070000B9F72091BB0040E050E002C04F5F5F4F5F
:100710008091BC0087FD03C04A355105B9F7912F80
:1007200080E030E0822B932B9093670580936605E1
:100730008FEF0E94F70020E030E002C02F5F3F4FB4
:100740008091BC0087FD03C02A353105B9F71091AF
:10075000BB0020E030E002C02F5F3F4F8091BC0023
:1007600087FD03C02A353105B9F78FEF0E94F700E6
:1007700020E030E002C02F5F3F4F8091BC0087FD3A
:1007800003C02A353105B9F72091BB0040E050E0A5
:1007900002C04F5F5F4F8091BC0087FD03C04A35A8
:1007A0005105B9F7912F80E030E0822B932B909385
:1007B0006305809362058FEF0E94F70020E030E030
:1007C00002C02F5F3F4F8091BC0087FD03C02A35D8
:1007D0003105B9F71091BB0020E030E002C02F5F77
:1007E0003F4F8091BC0087FD03C02A353105B9F722
:1007F0008FEF0E94F70020E030E002C02F5F3F4FF4
:100800008091BC0087FD03C02A353105B9F72091DE
:10081000BB0040E050E002C04F5F5F4F8091BC00E2
:1008200087FD03C04A355105B9F7912F80E030E0CC
:10083000822B932B90936505809364058DE30E9432
:100840001A0120E030E002C02F5F3F4F8091BC00D2
:1008500087FD03C02A353105B9F784E98093BC00D0
:100860001F9108951F938091BC008B7F8093BC00E3
:100870008091BC0084608093BC003C9A84EA8093A1
:10088000BC0020E030E002C02F5F3F4F8091BC00F1
:1008900087FD03C02A353105B9F780ED0E941A01A2
:1008A00020E030E002C02F5F3F4F8091BC0087FD09
:1008B00003C02A353105B9F78DE10E941A0120E005
:1008C00030E002C02F5F3F4F8091BC0087FD03C026
:1008D0002A353105B9F73C9A84EA8093BC0081ED52
:1008E0000E941A0120E030E002C02F5F3F4F80914C
:1008F000BC0087FD03C02A353105B9F780E00E94AE
:10090000F70020E030E002C02F5F3F4F8091BC0035
:1009100087FD03C02A353105B9F71091BB0020E0EF
:1009200030E002C02F5F3F4F8091BC0087FD03C0C5
:100930002A353105B9F784E98093BC008091BC0069
:100940008B7F8093BC008091BC0084608093BC004E
:100950003C9A84EA8093BC0020E030E002C02F5F24
:100960003F4F8091BC0087FD03C02A353105B9F7A0
:1009700080ED0E941A0120E030E002C02F5F3F4F5F
:100980008091BC0087FD03C02A353105B9F78EE19F
:100990000E941A0120E030E002C02F5F3F4F80919B
:1009A000BC0087FD03C02A353105B9F73C9A84EABB
:1009B0008093BC0081ED0E941A0120E030E002C06B
:1009C0002F5F3F4F8091BC0087FD03C02A35310562
:1009D000B9F780E00E94F70020E030E002C02F5F0E
:1009E0003F4F8091BC0087FD03C02A353105B9F720
:1009F0002091BB0040E050E002C04F5F5F4F80910C
:100A0000BC0087FD03C04A355105B9F784E98093DE
:100A1000BC008091BC008B7F8093BC008091BC00A7
:100A200084608093BC00912F80E030E0282B392B2C
:100A3000C9011F9108951F938091BC008B7F809303
:100A4000BC008091BC0084608093BC003C9A84EA26
:100A50008093BC0020E030E002C02F5F3F4F8091C8
:100A6000BC0087FD03C02A353105B9F780ED0E942F
:100A70001A0120E030E002C02F5F3F4F8091BC00A0
:100A800087FD03C02A353105B9F78FE10E941A01AD
:100A900020E030E002C02F5F3F4F8091BC0087FD17
:100AA00003C02A353105B9F73C9A84EA8093BC002B
:100AB00081ED0E941A0120E030E002C02F5F3F4F1D
:100AC0008091BC0087FD03C02A353105B9F780E06D
:100AD0000E94F70020E030E002C02F5F3F4F80917E
:100AE000BC0087FD03C02A353105B9F71091BB0062
:100AF00020E030E002C02F5F3F4F8091BC0087FDB7
:100B000003C02A353105B9F784E98093BC00809190
:100B1000BC008B7F8093BC008091BC00846080937C
:100B2000BC003C9A84EA8093BC0020E030E002C024
:100B30002F5F3F4F8091BC0087FD03C02A353105F0
:100B4000B9F780ED0E941A0120E030E002C02F5F6B
:100B50003F4F8091BC0087FD03C02A353105B9F7AE
:100B600080E20E941A0120E030E002C02F5F3F4F78
:100B70008091BC0087FD03C02A353105B9F73C9A46
:100B800084EA8093BC0081ED0E941A0120E030E0ED
:100B900002C02F5F3F4F8091BC0087FD03C02A3504
:100BA0003105B9F780E00E94F70020E030E002C094
:100BB0002F5F3F4F8091BC0087FD03C02A35310570
:100BC000B9F72091BB0040E050E002C04F5F5F4F9B
:100BD0008091BC0087FD03C04A355105B9F784E90F
:100BE0008093BC008091BC008B7F8093BC0080917F
:100BF000BC0084608093BC00912F80E030E0282B03
:100C0000392BC9011F9108951F938091BC008B7FE0
:100C10008093BC008091BC0084608093BC003C9AAF
:100C200084EA8093BC0020E030E002C02F5F3F4F99
:100C30008091BC0087FD03C02A353105B9F780EDEE
:100C40000E941A0120E030E002C02F5F3F4F8091E8
:100C5000BC0087FD03C02A353105B9F781E20E9447
:100C60001A0120E030E002C02F5F3F4F8091BC00AE
:100C700087FD03C02A353105B9F73C9A84EA809391
:100C8000BC0081ED0E941A0120E030E002C02F5F1D
:100C90003F4F8091BC0087FD03C02A353105B9F76D
:100CA00080E00E94F70020E030E002C02F5F3F4F5D
:100CB0008091BC0087FD03C02A353105B9F710913A
:100CC000BB0020E030E002C02F5F3F4F8091BC00AE
:100CD00087FD03C02A353105B9F784E98093BC004C
:100CE0008091BC008B7F8093BC008091BC008460AD
:100CF0008093BC003C9A84EA8093BC0020E030E002
:100D000002C02F5F3F4F8091BC0087FD03C02A3592
:100D10003105B9F780ED0E941A0120E030E002C0F1
:100D20002F5F3F4F8091BC0087FD03C02A353105FE
:100D3000B9F782E20E941A0120E030E002C02F5F82
:100D40003F4F8091BC0087FD03C02A353105B9F7BC
:100D50003C9A84EA8093BC0081ED0E941A0120E055
:100D600030E002C02F5F3F4F8091BC0087FD03C081
:100D70002A353105B9F780E00E94F70020E030E025
:100D800002C02F5F3F4F8091BC0087FD03C02A3512
:100D90003105B9F72091BB0040E050E002C04F5F41
:100DA0005F4F8091BC0087FD03C04A355105B9F7FC
:100DB00084E98093BC008091BC008B7F8093BC0051
:100DC0008091BC0084608093BC00912F80E030E073
:100DD000282B392BC9011F9108950F931F933C9A1B
:100DE00084EA8093BC0020E030E002C02F5F3F4FD8
:100DF0008091BC0087FD03C02A353105B9F786EA2A
:100E00000E941A0120E030E002C02F5F3F4F809126
:100E1000BC0087FD03C02A353105B9F782E30E9483
:100E20001A0120E030E002C02F5F3F4F8091BC00EC
:100E300087FD03C02A353105B9F784E98093BC00EA
:100E40003C9A84EA8093BC0020E030E002C02F5F2F
:100E50003F4F8091BC0087FD03C02A353105B9F7AB
:100E600087EA0E941A0120E030E002C02F5F3F4F66
:100E70008091BC0087FD03C02A353105B9F78FEF9B
:100E80000E94F70020E030E002C02F5F3F4F8091CA
:100E9000BC0087FD03C02A353105B9F70091BB00BE
:100EA00020E030E002C02F5F3F4F8091BC0087FD03
:100EB00003C02A353105B9F780E00E94F70020E031
:100EC00030E002C02F5F3F4F8091BC0087FD03C020
:100ED0002A353105B9F78091BB0020E030E002C02F
:100EE0002F5F3F4F8091BC0087FD03C02A3531053D
:100EF000B9F784E98093BC003C9A84EA8093BC00F3
:100F000020E030E002C02F5F3F4F8091BC0087FDA2
:100F100003C02A353105B9F786EA0E941A0120E09C
:100F200030E002C02F5F3F4F8091BC0087FD03C0BF
:100F30002A353105B9F783E30E941A0120E030E039
:100F400002C02F5F3F4F8091BC0087FD03C02A3550
:100F50003105B9F784E98093BC003C9A84EA809318
:100F6000BC0020E030E002C02F5F3F4F8091BC000A
:100F700087FD03C02A353105B9F787EA0E941A01B7
:100F800020E030E002C02F5F3F4F8091BC0087FD22
:100F900003C02A353105B9F78FEF0E94F70020E032
:100FA00030E002C02F5F3F4F8091BC0087FD03C03F
:100FB0002A353105B9F71091BB0020E030E002C0BE
:100FC0002F5F3F4F8091BC0087FD03C02A3531055C
:100FD000B9F780E00E94F70020E030E002C02F5F08
:100FE0003F4F8091BC0087FD03C02A353105B9F71A
:100FF0008091BB0020E030E002C02F5F3F4F809126
:10100000BC0087FD03C02A353105B9F784E9809318
:10101000BC00912F80E0202F30E0282B392BC90114
:101020001F910F9108950F931F933C9A84EA809328
:10103000BC0020E030E002C02F5F3F4F8091BC0039
:1010400087FD03C02A353105B9F786EA0E941A01E7
:1010500020E030E002C02F5F3F4F8091BC0087FD51
:1010600003C02A353105B9F784E30E941A0120E054
:1010700030E002C02F5F3F4F8091BC0087FD03C06E
:101080002A353105B9F784E98093BC003C9A84EA9B
:101090008093BC0020E030E002C02F5F3F4F809182
:1010A000BC0087FD03C02A353105B9F787EA0E94E5
:1010B0001A0120E030E002C02F5F3F4F8091BC005A
:1010C00087FD03C02A353105B9F78FEF0E94F7007D
:1010D00020E030E002C02F5F3F4F8091BC0087FDD1
:1010E00003C02A353105B9F70091BB0020E030E09C
:1010F00002C02F5F3F4F8091BC0087FD03C02A359F
:101100003105B9F780E00E94F70020E030E002C02E
:101110002F5F3F4F8091BC0087FD03C02A3531050A
:10112000B9F78091BB0020E030E002C02F5F3F4F55
:101130008091BC0087FD03C02A353105B9F784E9E9
:101140008093BC003C9A84EA8093BC0020E030E0AD
:1011500002C02F5F3F4F8091BC0087FD03C02A353E
:101160003105B9F786EA0E941A0120E030E002C09A
:101170002F5F3F4F8091BC0087FD03C02A353105AA
:10118000B9F785E30E941A0120E030E002C02F5F2A
:101190003F4F8091BC0087FD03C02A353105B9F768
:1011A00084E98093BC003C9A84EA8093BC0020E0F0
:1011B00030E002C02F5F3F4F8091BC0087FD03C02D
:1011C0002A353105B9F787EA0E941A0120E030E09C
:1011D00002C02F5F3F4F8091BC0087FD03C02A35BE
:1011E0003105B9F78FEF0E94F70020E030E002C030
:1011F0002F5F3F4F8091BC0087FD03C02A3531052A
:10120000B9F71091BB0020E030E002C02F5F3F4FE4
:101210008091BC0087FD03C02A353105B9F780E015
:101220000E94F70020E030E002C02F5F3F4F809126
:10123000BC0087FD03C02A353105B9F78091BB009A
:1012400020E030E002C02F5F3F4F8091BC0087FD5F
:1012500003C02A353105B9F784E98093BC00912F8A
:1012600080E0202F30E0282B392BC9011F910F91EE
:1012700008950F931F933C9A84EA8093BC0020E06A
:1012800030E002C02F5F3F4F8091BC0087FD03C05C
:101290002A353105B9F786EA0E941A0120E030E0CC
:1012A00002C02F5F3F4F8091BC0087FD03C02A35ED
:1012B0003105B9F786E30E941A0120E030E002C050
:1012C0002F5F3F4F8091BC0087FD03C02A35310559
:1012D000B9F784E98093BC003C9A84EA8093BC000F
:1012E00020E030E002C02F5F3F4F8091BC0087FDBF
:1012F00003C02A353105B9F787EA0E941A0120E0B8
:1013000030E002C02F5F3F4F8091BC0087FD03C0DB
:101310002A353105B9F78FEF0E94F70020E030E061
:1013200002C02F5F3F4F8091BC0087FD03C02A356C
:101330003105B9F70091BB0020E030E002C02F5F1B
:101340003F4F8091BC0087FD03C02A353105B9F7B6
:1013500080E00E94F70020E030E002C02F5F3F4FA6
:101360008091BC0087FD03C02A353105B9F7809113
:10137000BB0020E030E002C02F5F3F4F8091BC00F7
:1013800087FD03C02A353105B9F784E98093BC0095
:101390003C9A84EA8093BC0020E030E002C02F5FDA
:1013A0003F4F8091BC0087FD03C02A353105B9F756
:1013B00086EA0E941A0120E030E002C02F5F3F4F12
:1013C0008091BC0087FD03C02A353105B9F787E35A
:1013D0000E941A0120E030E002C02F5F3F4F809151
:1013E000BC0087FD03C02A353105B9F784E9809335
:1013F000BC003C9A84EA8093BC0020E030E002C04C
:101400002F5F3F4F8091BC0087FD03C02A35310517
:10141000B9F787EA0E941A0120E030E002C02F5F8E
:101420003F4F8091BC0087FD03C02A353105B9F7D5
:101430008FEF0E94F70020E030E002C02F5F3F4FA7
:101440008091BC0087FD03C02A353105B9F71091A2
:10145000BB0020E030E002C02F5F3F4F8091BC0016
:1014600087FD03C02A353105B9F780E00E94F700F7
:1014700020E030E002C02F5F3F4F8091BC0087FD2D
:1014800003C02A353105B9F78091BB0020E030E078
:1014900002C02F5F3F4F8091BC0087FD03C02A35FB
:1014A0003105B9F784E98093BC00912F80E0202FAB
:1014B00030E0282B392BC9011F910F910895492F36
:1014C000552747FD5A954093C5008093C40022E0FC
:1014D0002093C00028E12093C10026E02093C200A1
:1014E0002FE435E030936B0520936A050895F99950
:1014F000FECF82E090E092BD81BDF89A80B5833640
:1015000009F083C0F999FECF83E090E092BD81BDE0
:10151000F89A80B5843081F480EC92E1A0E0B0E0EC
:1015200080935E0590935F05A0936005B09361057D
:101530008FEC90E00E945F0AF999FECF84E090E082
:1015400092BD81BDF89A80B5893081F480E895E23A
:10155000A0E0B0E080935E0590935F05A0936005E6
:10156000B093610587E690E00E945F0AF999FECF8B
:1015700085E090E092BD81BDF89A80B5833181F419
:1015800080E09BE4A0E0B0E080935E0590935F056F
:10159000A0936005B093610583E390E00E945F0A29
:1015A000F999FECF86E090E092BD81BDF89A80B5B2
:1015B000863281F480E096E9A0E0B0E080935E0599
:1015C00090935F05A0936005B093610589E190E079
:1015D0000E945F0AF999FECF87E090E092BD81BD3D
:1015E000F89A80B5893309F580E091EEA0E0B0E08B
:1015F00080935E0590935F05A0936005B0936105AD
:1016000080E190E00E945F0A089580E190E00E94EE
:101610005F0A80E091EEA0E0B0E080935E059093D9
:101620005F05A0936005B0936105089580E684B9D5
:1016300080E187B982E08AB980E388B92D980E9459
:10164000D7000E9428010E9472020E94A9010E94F4
:10165000770A08958091C00087FFFCCF8091C60073
:1016600008951F93182F8A3019F48DE00E94310BD2
:101670008091C00085FFFCCF1093C60080E090E011
:101680001F910895F999FECF92BD81BD60BDFA9A70
:10169000F99A0895F999FECF92BD81BDF89A80B567
:1016A00008950E94320400D000D020E031E0EDB770
:1016B000FEB732832183948383830E9494120F9018
:1016C0000F900F900F900E941B0500D000D029E0D2
:1016D00031E0EDB7FEB732832183948383830E9488
:1016E00094120F900F900F900F900E94040600D05C
:1016F00000D022E131E0EDB7FEB73283218394833D
:1017000083830E9494120F900F900F900F9084E1AA
:1017100090E00E940B0108950E94330300D000D096
:101720008BE191E0EDB7FEB79283818380916605EE
:1017300090916705948383830E94941283E291E0E1
:10174000EDB7FEB792838183809164059091650522
:10175000948383830E9494128BE291E0EDB7FEB7ED
:101760009283818380916205909163059483838342
:101770000E9494120F900F900F900F90089500D038
:1017800082E391E0EDB7FEB7928381830E949412C9
:101790008EE391E0EDB7FEB7928381830E949412AD
:1017A0008DE991E0EDB7FEB7928381830E94941298
:1017B0008BEF91E0EDB7FEB7928381830E94941284
:1017C00086E592E0EDB7FEB7928381830E94941282
:1017D00087EB92E0EDB7FEB7928381830E9494126B
:1017E00081E093E0EDB7FEB7928381830E9494126B
:1017F0008FE793E0EDB7FEB7928381830E94941246
:101800008BEB93E0EDB7FEB7928381830E94941235
:101810000F900F9008950E94ED0600D000D02BE1AC
:1018200031E0EDB7FEB732832183948383830E9436
:1018300094120F900F900F900F900E94130800D0F9
:1018400000D023E231E0EDB7FEB7328321839483E9
:1018500083830E9494120F900F900F900F900E941C
:10186000390900D000D024E034E0EDB7FEB7328370
:101870002183948383830E9494120F900F900F9082
:101880000F9084E190E00E940B0108950F931F9345
:1018900084E290E00E94CF120E94ED0600D000D0BA
:1018A0000DE014E0EDB7FEB71283018394838383C8
:1018B0000E9494120F900F900F900F900E941308A7
:1018C00000D000D0EDB7FEB71283018394838383E9
:1018D0000E9494120F900F900F900F900E94390960
:1018E00000D000D0EDB7FEB71283018394838383C9
:1018F0000E9494120F900F900F900F900E9432044C
:1019000000D000D0EDB7FEB71283018394838383A8
:101910000E9494120F900F900F900F900E941B0541
:1019200000D000D0EDB7FEB7128301839483838388
:101930000E9494120F900F900F900F900E94040637
:1019400000D000D0EDB7FEB7128301839483838368
:101950000E9494120F900F900F900F900E943303EB
:1019600000D000D0EDB7FEB71283018380916605E9
:1019700090916705948383830E949412EDB7FEB71C
:10198000128301838091640590916505948383831C
:101990000E94941281E194E0EDB7FEB792838183B7
:1019A0008091620590916305948383830E949412D1
:1019B0000F900F9084E194E0EDB7FEB7928381839E
:1019C0000E9494120F900F908EE591E00E940B01FF
:1019D0001F910F9108950E94D7000E9428010E9434
:1019E000720200D088E690E0EDB7FEB79283818363
:1019F0000E94A9128EE990E0EDB7FEB79283818331
:101A00000E94A9128DEB90E0EDB7FEB7928381831F
:101A10000E94A91289ED90E0EDB7FEB79283818311
:101A20000E94A91283EF90E0EDB7FEB79283818305
:101A30000E94A91283E091E0EDB7FEB79283818303
:101A40000E94A91200D000D088E194E0EDB7FEB763
:101A50009283818380915E0590915F05A0916005DE
:101A6000B091610583839483A583B6830E94941209
:101A70000F900F900F900F9089E191E0EDB7FEB7B6
:101A8000928381830E94A91282E391E0EDB7FEB7B1
:101A9000928381830E94A9120F900F900E94BF1120
:101AA00008950F931F931092670510926605109288
:101AB00065051092640510926305109262050E94FC
:101AC00072023C9A84EA8093BC0020E030E002C0BD
:101AD0002F5F3F4F8091BC0087FD03C02A35310541
:101AE000B9F78DE30E941A0120E030E002C02F5FB9
:101AF0003F4F8091BC0087FD03C02A353105B9F7FF
:101B00008FEF0E94F70020E030E002C02F5F3F4FD0
:101B10008091BC0087FD03C02A353105B9F71091CB
:101B2000BB0020E030E002C02F5F3F4F8091BC003F
:101B300087FD03C02A353105B9F78FEF0E94F70002
:101B400020E030E002C02F5F3F4F8091BC0087FD56
:101B500003C02A353105B9F72091BB0040E050E0C1
:101B600002C04F5F5F4F8091BC0087FD03C04A35C4
:101B70005105B9F7912F80E030E0822B932B9093A1
:101B80006705809366058FEF0E94F70020E030E044
:101B900002C02F5F3F4F8091BC0087FD03C02A35F4
:101BA0003105B9F71091BB0020E030E002C02F5F93
:101BB0003F4F8091BC0087FD03C02A353105B9F73E
:101BC0008FEF0E94F70020E030E002C02F5F3F4F10
:101BD0008091BC0087FD03C02A353105B9F72091FB
:101BE000BB0040E050E002C04F5F5F4F8091BC00FF
:101BF00087FD03C04A355105B9F7912F80E030E0E9
:101C0000822B932B90936305809362058FEF0E9444
:101C1000F70020E030E002C02F5F3F4F8091BC0012
:101C200087FD03C02A353105B9F71091BB0020E0CC
:101C300030E002C02F5F3F4F8091BC0087FD03C0A2
:101C40002A353105B9F78FEF0E94F70020E030E028
:101C500002C02F5F3F4F8091BC0087FD03C02A3533
:101C60003105B9F72091BB0040E050E002C04F5F62
:101C70005F4F8091BC0087FD03C04A355105B9F71D
:101C8000912F80E030E0822B932B90936505809319
:101C900064058DE30E941A0120E030E002C02F5F4E
:101CA0003F4F8091BC0087FD03C02A353105B9F74D
:101CB00084E98093BC00209166053091670580918E
:101CC0006405909165052817390749F480916205EC
:101CD000909163052817390711F40FEF01C000E058
:101CE0003C9A84EA8093BC0020E030E002C02F5F81
:101CF0003F4F8091BC0087FD03C02A353105B9F7FD
:101D000086EA0E941A0120E030E002C02F5F3F4FB8
:101D10008091BC0087FD03C02A353105B9F780E00A
:101D20000E941A0120E030E002C02F5F3F4F8091F7
:101D3000BC0087FD03C02A353105B9F784E98093DB
:101D4000BC003C9A84EA8093BC0020E030E002C0F2
:101D50002F5F3F4F8091BC0087FD03C02A353105BE
:101D6000B9F787EA0E941A0120E030E002C02F5F35
:101D70003F4F8091BC0087FD03C02A353105B9F77C
:101D80008FEF0E94F70020E030E002C02F5F3F4F4E
:101D90008091BC0087FD03C02A353105B9F7109149
:101DA000BB0020E030E002C02F5F3F4F8091BC00BD
:101DB00087FD03C02A353105B9F780E00E94F7009E
:101DC00020E030E002C02F5F3F4F8091BC0087FDD4
:101DD00003C02A353105B9F78091BB0020E030E01F
:101DE00002C02F5F3F4F8091BC0087FD03C02A35A2
:101DF0003105B9F784E98093BC008091BC008B7FEA
:101E00008093BC008091BC0084608093BC003C9AAD
:101E100084EA8093BC0020E030E002C02F5F3F4F97
:101E20008091BC0087FD03C02A353105B9F780EDEC
:101E30000E941A0120E030E002C02F5F3F4F8091E6
:101E4000BC0087FD03C02A353105B9F780E00E9448
:101E50001A0120E030E002C02F5F3F4F8091BC00AC
:101E600087FD03C02A353105B9F73C9A84EA80938F
:101E7000BC0081ED0E941A0120E030E002C02F5F1B
:101E80003F4F8091BC0087FD03C02A353105B9F76B
:101E900080E00E94F70020E030E002C02F5F3F4F5B
:101EA0008091BC0087FD03C02A353105B9F79091B8
:101EB000BB0020E030E002C02F5F3F4F8091BC00AC
:101EC00087FD03C02A353105B9F784E98093BC004A
:101ED0008091BC008B7F8093BC008091BC008460AB
:101EE0008093BC00993699F5002389F5153E79F564
:101EF0002D9A88EE93E00E940B012D9888EE93E0D6
:101F00000E940B012D9A88EE93E00E940B012D9800
:101F100088EE93E00E940B012D9A88EE93E00E94D8
:101F20000B012D9888EE93E00E940B012D9A88EE0C
:101F300093E00E940B012D9888EE93E00E940B0124
:101F40002D9A88EE93E00E940B012D9801C02D9AE6
:101F50000E94EB0C1F910F9108951F9300D081E216
:101F600094E0EDB7FEB7928381830E9494128BE3D5
:101F700094E0EDB7FEB7928381830E94941286E4C9
:101F800094E0EDB7FEB7928381830E94941281E5BD
:101F900094E0EDB7FEB7928381830E9494128DE5A1
:101FA00094E0EDB7FEB7928381830E94941289E694
:101FB00094E0EDB7FEB7928381830E9494120F9054
:101FC0000F908091C00087FFFCCF1091C6006091F8
:101FD0006A0570916B058AE090E00E94681260913A
:101FE0006A0570916B058DE090E00E9468121133D4
:101FF00091F582E090E063E60E94420B84E090E07D
:1020000060E00E94420B85E090E060E00E94420B9D
:1020100086E090E060E00E94420B87E090E060E0A4
:102020000E94420B83E090E064E00E94420B00D0EB
:1020300085E794E0EDB7FEB7928381830E94941206
:102040000F900F9082E390E00E940B018FEC90E0E4
:102050000E945F0AFFCF123391F582E090E063E6C1
:102060000E94420B83E090E060E00E94420B85E01A
:1020700090E060E00E94420B86E090E060E00E9409
:10208000420B87E090E060E00E94420B84E090E029
:1020900069E00E94420B00D080EA94E0EDB7FEB701
:1020A000928381830E9494120F900F9082E390E0BC
:1020B0000E940B0187E690E00E945F0AFFCF133376
:1020C00091F582E090E063E60E94420B83E090E0AD
:1020D00060E00E94420B84E090E060E00E94420BCE
:1020E00086E090E060E00E94420B87E090E060E0D4
:1020F0000E94420B85E090E063E10E94420B00D019
:102100008BEC94E0EDB7FEB7928381830E9494122A
:102110000F900F9082E390E00E940B0183E390E028
:102120000E945F0AFFCF143391F582E090E063E6EE
:102130000E94420B83E090E060E00E94420B84E04A
:1021400090E060E00E94420B85E090E060E00E9439
:10215000420B87E090E060E00E94420B86E090E056
:1021600066E20E94420B00D087EF94E0EDB7FEB725
:10217000928381830E9494120F900F9082E390E0EB
:102180000E940B0189E190E00E945F0AFFCF1533A6
:1021900091F582E090E063E60E94420B83E090E0DC
:1021A00060E00E94420B84E090E060E00E94420BFD
:1021B00085E090E060E00E94420B86E090E060E005
:1021C0000E94420B87E090E069E30E94420B00D03E
:1021D00083E295E0EDB7FEB7928381830E9494126B
:1021E0000F900F9082E390E00E940B0180E190E05D
:1021F0000E945F0AFFCF1153153008F4E2CE0E940F
:10220000EB0CDFCEEF92FF920F931F93CF93DF93F0
:10221000CDE0D4E051E1E52E54E0F52E04E114E0E8
:102220009AC084E290E00E94CF120E94ED0600D096
:1022300000D0EDB7FEB7D283C183948383830E941D
:1022400094120F900F900F900F900E94130800D0DF
:1022500000D0EDB7FEB7D283C183948383830E94FD
:1022600094120F900F900F900F900E94390900D098
:1022700000D0EDB7FEB7D283C183948383830E94DD
:1022800094120F900F900F900F900E94320400D084
:1022900000D0EDB7FEB7D283C183948383830E94BD
:1022A00094120F900F900F900F900E941B0500D07A
:1022B00000D0EDB7FEB7D283C183948383830E949D
:1022C00094120F900F900F900F900E94040600D070
:1022D00000D0EDB7FEB7D283C183948383830E947D
:1022E00094120F900F900F900F900E94330300D024
:1022F00000D0EDB7FEB7D283C1838091660590917F
:102300006705948383830E949412EDB7FEB7D2834E
:10231000C1838091640590916505948383830E94B5
:102320009412EDB7FEB7F282E1828091620590913E
:102330006305948383830E9494120F900F90EDB7EE
:10234000FEB7128301830E9494120F900F908EE5C6
:1023500091E00E940B018091C00087FF62CF8091C5
:10236000C00087FFFCCF8091C6008A31A1F781E0D1
:1023700090E060E00E94420B0E94EB0CECCF1F93B8
:10238000F999FECF81E090E092BD81BDF89A80B5C9
:10239000803309F46FC08091C00087FFFCCF10919B
:1023A000C60060916A0570916B058AE090E00E941A
:1023B000681260916A0570916B058DE090E00E9453
:1023C0006812113351F402C00E940B0C8091C000BE
:1023D00087FFFACF0E94EB0C1CC0123371F406C0C9
:1023E0000E948C0B8EE591E00E940B018091C00051
:1023F00087FFF6CF0E94EB0C18C0133319F009C009
:102400000E94510B8091C00087FFFACF0E94EB0C15
:1024100011C0143319F009C00E94460C8091C0000D
:1024200087FFFACF0E94EB0C0AC0153319F40E9403
:10243000AD0F17C0103119F40E94510DACCF1A31F5
:1024400041F481E090E060E30E94420B0E9402119F
:10245000A2CF1F3349F40E94BF0B8091C00087FFB9
:10246000FCCF0E94EB0C97CF1F3F09F094CF0E9446
:10247000BF1191CF0E9402111F910895CF93DF9356
:102480000E94160B0E94510DC1E0D0E0F999FECFD9
:10249000D2BDC1BDF89A80B5803319F40E94BF1136
:1024A000F5CF0E94EB0CF2CFAA1BBB1B51E107C07A
:1024B000AA1FBB1FA617B70710F0A61BB70B881FD4
:1024C000991F5A95A9F780959095BC01CD01089563
:1024D0000F931F93CF93DF938C01EB018B8181FFCF
:1024E0001BC082FF0DC02E813F818C819D812817EA
:1024F000390764F4E881F9810193F983E88306C020
:10250000E885F985802F0995892B31F48E819F818B
:1025100001969F838E8302C00FEF1FEFC801DF91EA
:10252000CF911F910F910895A0E0B0E0EAE9F2E1A8
:102530000C943715FE0135966191719180916A0571
:1025400090916B05AF010E94D6122096E2E00C94A8
:102550005315A0E0B0E0EFEAF2E10C943715FE016C
:10256000359661917191A0916A05B0916B051396B2
:102570008C911397886013968C9380916A05909143
:102580006B05AF010E94D612E0916A05F0916B05D0
:102590002381277F23832096E2E00C9453156091DA
:1025A0006A0570916B050E9468120895ABE0B0E077
:1025B000ECEDF2E10C9427153C012B015A01FC01D2
:1025C00017821682838181FD03C06FEF7FEFC6C142
:1025D0009AE0892E1E010894211C311CF3012381ED
:1025E000F20123FD859123FF81912F01882309F4B6
:1025F000B2C1853239F423FD859123FF81912F01EA
:10260000853229F490E0B3010E946812E7CF982F39
:10261000FF24EE249924FFE1FF15D0F09B3269F0EE
:102620009C3228F4903259F0933291F40EC09D32CE
:1026300049F0903369F441E024C052E0F52A84E087
:10264000F82A28C098E0F92A25C0E0E1FE2A22C035
:10265000F7FC29C0892F80538A3070F4F6FE05C03C
:10266000989C902C1124980E15C0E89CE02C112405
:10267000E80EF0E2FF2A0EC09E3229F4F6FC6BC190
:1026800040E4F42A07C09C3619F450E8F52A02C049
:10269000983649F4F20123FD959123FF91912F0182
:1026A000992309F0B8CF892F8554833018F08052D0
:1026B000833038F444E050E0A40EB51E5FE3598344
:1026C0000FC0933631F0933779F0933509F056C047
:1026D00020C0F5018081898342E050E0A40EB51E40
:1026E000610101E010E012C0F501C080D180F6FC6C
:1026F00003C06FEF7FEF02C0692D70E042E050E051
:10270000A40EB51EC6010E94BE148C015FE7F5221F
:1027100014C0F501C080D180F6FC03C06FEF7FEFDD
:1027200002C0692D70E042E050E0A40EB51EC60163
:102730000E94B3148C0150E8F52AF3FE07C01AC0BA
:1027400080E290E0B3010E946812EA948E2D90E03E
:1027500008171907A8F30EC0F601F7FC8591F7FEDC
:1027600081916F0190E0B3010E946812E110EA9438
:10277000015010400115110579F7EAC0943611F0A7
:10278000993669F5F7FE08C0F50120813181428153
:10279000538184E090E00AC0F501808191819C0121
:1027A000442737FD4095542F82E090E0A80EB91ED3
:1027B0009FE6F92257FF09C0509540953095219525
:1027C0003F4F4F4F5F4FE0E8FE2ACA01B901A10118
:1027D0002AE030E00E94C914D82ED21840C09537A4
:1027E00029F41F2D1F7E2AE030E01DC01F2D197F08
:1027F0009F3661F0903720F4983509F0ACC00FC0D7
:10280000903739F0983709F0A6C004C028E030E0CE
:102810000AC0106114FD146020E130E004C014FD12
:10282000166020E132E017FF08C0F5016081718178
:102830008281938144E050E008C0F501808191815C
:10284000BC0180E090E042E050E0A40EB51EA10182
:102850000E94C914D82ED2188FE7F82EF122F6FE66
:102860000BC05EEFF522D91438F4F4FE07C0F2FC79
:1028700005C08FEEF82202C01D2D01C0192DF4FEF7
:102880000DC0FE01ED0DF11D8081803319F499EE2C
:10289000F92208C01F5FF2FE05C003C08F2D8678A5
:1028A00009F01F5F0F2DF3FC14C0F0FE0FC01E15C2
:1028B00010F09D2C0BC09D2C9E0C911A1E2D06C055
:1028C00080E290E0B3010E9468121F5F1E15C0F302
:1028D00004C01E1510F4E11A01C0EE2404FF0FC05D
:1028E00080E390E0B3010E94681202FF1DC001FD69
:1028F00003C088E790E00EC088E590E00BC0802F11
:10290000867891F001FF02C08BE201C080E2F7FC03
:102910008DE290E0B3010E94681206C080E390E06F
:10292000B3010E9468129A94D914C0F3DA94F101A9
:10293000ED0DF11D808190E0B3010E946812DD2051
:10294000A9F706C080E290E0B3010E946812EA9401
:10295000EE20C1F743CEF30166817781CB012B9640
:10296000E2E10C944315FC010590615070400110A8
:10297000D8F7809590958E0F9F1F0895FC016150A8
:10298000704001900110D8F7809590958E0F9F1F91
:102990000895FA01AA27283051F1203181F1E894F5
:1029A0006F936E7F6E5F7F4F8F4F9F4FAF4FB1E042
:1029B0003ED0B4E03CD0670F781F891F9A1FA11D3D
:1029C000680F791F8A1F911DA11D6A0F711D811D3E
:1029D000911DA11D20D009F468943F912AE0269F03
:1029E00011243019305D3193DEF6CF010895462F62
:1029F0004770405D4193B3E00FD0C9F7F6CF462F43
:102A00004F70405D4A3318F0495D31FD40524193AB
:102A100002D0A9F7EACFB4E0A69597958795779568
:102A20006795BA95C9F700976105710508959B01EF
:102A3000AC010A2E06945795479537952795BA9578
:102A4000C9F7620F731F841F951FA01D08952F9251
:102A50003F924F925F926F927F928F929F92AF922E
:102A6000BF92CF92DF92EF92FF920F931F93CF937B
:102A7000DF93CDB7DEB7CA1BDB0B0FB6F894DEBF12
:102A80000FBECDBF09942A88398848885F846E8438
:102A90007D848C849B84AA84B984C884DF80EE8082
:102AA000FD800C811B81AA81B981CE0FD11D0FB68B
:102AB000F894DEBF0FBECDBFED010895F894FFCFAF
:102AC000783D202534642C2000793D202534642C69
:102AD00020007A3D202534640A0D00783D253464B9
:102AE0002C2000793D2534642C20007A3D25640A91
:102AF0000D0048454C50204D454E550A0D005B31A8
:102B00005D2073656E642061736369692031207490
:102B10006F20676574206F75747075742066726FAE
:102B20006D2074686520616363656C65726F6D65A7
:102B300074657228782C792C7A292E2048697420A3
:102B4000616E79206B657920746F2072657475727F
:102B50006E20746F206D656E752E0A0D005B325D00
:102B60002073656E64206173636969203220746F1D
:102B700020676574206F75747075742066726F6D50
:102B800020746865206D61676E65746F6D6574652E
:102B90007228782C792C7A292E2048697420616E4D
:102BA00079206B657920746F2072657475726E2060
:102BB000746F206D656E752E0A0D005B335D20739A
:102BC000656E64206173636969203320746F2067C8
:102BD0006574206F75747075742066726F6D2074E3
:102BE0006865206779726F73636F706528782C79D8
:102BF0002C7A292E2048697420616E79206B6579C2
:102C000020746F2072657475726E20746F206D650C
:102C10006E752E0A0D005B345D2073656E64206155
:102C200073636969203420746F2067657420746849
:102C30006520726177206F75747075742066726F8D
:102C40006D20616C6C206F66207468652073656E02
:102C5000736F72732E2048697420616E79206B65E2
:102C60007920746F2072657475726E20746F206D98
:102C7000656E752E0A0D002A2A2A20526177206679
:102C80006F726D6174202724616363656C782C61B9
:102C90006363656C792C616363656C7A2C67797208
:102CA0006F782C6779726F792C6779726F7A2C6DD7
:102CB0006167782C6D6167792C6D61677A230A0DE5
:102CC000005B355D2073656E642061736369692004
:102CD0003520746F20676574207468652035206323
:102CE000686F6963657320666F7220626175642026
:102CF00072617465732E20526573657420746572F9
:102D00006D696E616C20616E6420626F6172642017
:102D10006166746572206368616E67652E2048691C
:102D20007420616E79206B657920746F20726574F0
:102D300075726E20746F206D656E752E0A0D005BC6
:102D40006374726C2D705D206374726C2D702074CE
:102D5000657374732074686520616363656C657264
:102D60006F6D6574657220616E64206D61676E655C
:102D7000746F6D657465722E0A0D005B6374726CFE
:102D80002D7A5D206374726C2B7A20617420616EE1
:102D90007974696D652077696C6C20746F67676CF6
:102DA00065206265747765656E20726177206F7546
:102DB0007470757420616E6420746865206D656E32
:102DC000750A0D007A3D253464200A0D0025642C17
:102DD00000256400230A0D00256C646270730A0DDF
:102DE000000A0D4261756420526174652053656C60
:102DF000656374204D656E750A0D005B315D20348E
:102E00003830300A0D005B325D20393630300A0D23
:102E1000005B335D2031393230300A0D005B345DA8
:102E20002033383430300A0D005B355D20353736BD
:102E300030300A0D00216368616E6765206261753C
:102E400064207261746520746F2034383030627091
:102E5000732C20726573657420626F617264210047
:102E6000216368616E6765206261756420726174B8
:102E70006520746F20393630306270732C20726593
:102E800073657420626F6172642100216368616EF2
:102E900067652062617564207261746520746F20BB
:102EA00031393230306270732C2072657365742052
:102EB000626F6172642100216368616E67652062E0
:102EC000617564207261746520746F20333834300A
:102ED000306270732C20726573657420626F61724A
:102EE000642100216368616E6765206261756420FA
:102EF0007261746520746F203537363030627073BC
:102F00002C20726573657420626F61726421000009
:0E2F100000000200000000310B000000000075
:00000001FF
