:100000000C949E000C94BB000C94BB000C94BB00A1
:100010000C94BB000C94BB000C94BB000C94BB0074
:100020000C94BB000C94BB000C94BB000C94BB0064
:100030000C94BB000C94BB000C94BB000C94BB0054
:100040000C94BB000C94BB000C94BB000C94BB0044
:100050000C94BB000C94BB000C94BB000C94BB0034
:100060000C94BB000C94BB000A0A0D39444F462087
:10007000494D55204669726D776172652076323040
:10008000200A0D3D3D3D3D3D3D3D3D3D3D3D3D3D20
:100090003D3D3D3D3D3D3D3D3D3D3D3D3D000A0D30
:1000A0005B315D416363656C65726F6D657465722C
:1000B0003A204144584C333435200A0D005B325D00
:1000C0004D61676E65746F6D657465723A20484D59
:1000D0004335383433200A0D005B335D4779726F46
:1000E00073636F70653A204954472D3332303020A6
:1000F0000A0D005B345D526177204F757470757422
:100100000A0D005B355D4368616E6765204261756D
:100110006420526174653A20005B4374726C2B7AE0
:100120005D546F67676C65204175746F72756E0AF8
:100130000D005B3F5D48656C700A0D0011241FBE09
:10014000CFEFD8E0DEBFCDBF15E0A0E0B1E0E2E840
:10015000F3E202C005900D92A43AB107D9F715E079
:10016000A4EAB5E001C01D92A43BB107E1F70E94EB
:10017000C4010C94BF110C940000DF93CF93CDB752
:10018000DEB788E290E00E94CF00ACEBB0E0ECEB91
:10019000F0E0808184608C93CF91DF910895DF93AC
:1001A000CF9300D000D00F92CDB7DEB79B838A8368
:1001B000A9EBB0E0E9EBF0E080818E7F8C93A9EBB6
:1001C000B0E0E9EBF0E080818D7F8C9380ED97E0EB
:1001D0002A813B81B9010E94B50ECB0189838981B7
:1001E0008031A0F08981882F90E040979D838C8397
:1001F0008C819D8199232CF48C819D8101969D8316
:100200008C838C819D81959587958983E8EBF0E0BF
:10021000898180830F900F900F900F900F90CF9156
:10022000DF910895DF93CF93CDB7DEB7A7E2B0E0BB
:10023000E7E2F0E0808180618C93ECEBF0E084EA0F
:100240008083CF91DF910895DF93CF93CDB7DEB751
:10025000ECEBF0E084E98083CF91DF910895DF93A8
:10026000CF9300D0CDB7DEB71A82198205C089813D
:100270009A8101969A838983ECEBF0E08081882350
:100280002CF089819A818A3591058CF30F900F901B
:10029000CF91DF910895DF93CF930F92CDB7DEB763
:1002A000898381E090E00E949A01A7E2B0E0E7E252
:1002B000F0E0808180618C93EBEBF0E089818083BA
:1002C000ECEBF0E084E880830F90CF91DF9108950C
:1002D000DF93CF930F92CDB7DEB7898389818823CF
:1002E00049F0ACEBB0E0ECEBF0E080818F70806C1B
:1002F0008C9308C0ACEBB0E0ECEBF0E080818F7049
:1003000080688C930F90CF91DF910895DF93CF9306
:10031000CDB7DEB7EBEBF0E08081CF91DF910895B0
:10032000DF93CF93CDB7DEB7E9EBF0E08081CF91DB
:10033000DF910895DF93CF9300D000D0CDB7DEB723
:100340009C838B8316C01A820CC0198204C00000E3
:1003500089818F5F898389818630C8F38A818F5F25
:100360008A838A818A3588F38B819C8101979C835B
:100370008B838B819C81009731F70F900F900F90AA
:100380000F90CF91DF910895DF93CF93CDB7DEB774
:100390000E94D60DA5E2B0E0E5E2F0E08081806247
:1003A0008C9388EE93E00E949A01A5E2B0E0E5E22A
:1003B000F0E080818F7D8C9388EE93E00E949A011B
:1003C000A5E2B0E0E5E2F0E0808180628C9388EE07
:1003D00093E00E949A01A5E2B0E0E5E2F0E08081BE
:1003E0008F7D8C9381E090E00E94900E803319F411
:1003F0000E94F505CFCF0E946605CCCFDF93CF9347
:10040000CDB7DEB70E9412010E942F0186EA0E943A
:100410004B010E942F018DE20E944B010E942F018F
:1004200088E00E944B010E942F010E9424010E943B
:1004300012010E942F0186EA0E944B010E942F01A7
:1004400081E30E944B010E942F0188E00E944B0132
:100450000E942F010E942401CF91DF910895DF9324
:10046000CF93CDB7DEB70E94650C9C0100D000D0C1
:10047000EDB7FEB731968EE091E0918380833383B0
:1004800022830E94F50E0F900F900F900F900E9404
:10049000E00C9C0100D000D0EDB7FEB7319686E1AC
:1004A00091E091838083338322830E94F50E0F9025
:1004B0000F900F900F900E945B0D9C0100D000D018
:1004C000EDB7FEB731968EE191E09183808333835F
:1004D00022830E94F50E0F900F900F900F9084E1F1
:1004E00090E00E949A01CF91DF910895DF93CF931E
:1004F000CDB7DEB7CDC084E290E00E94300F0E94FD
:10050000650C9C0100D000D0EDB7FEB7319687E2B4
:1005100091E091838083338322830E94F50E0F90B4
:100520000F900F900F900E94E00C9C0100D000D023
:10053000EDB7FEB7319687E291E0918380833383F4
:1005400022830E94F50E0F900F900F900F900E9443
:100550005B0D9C0100D000D0EDB7FEB7319687E26D
:1005600091E091838083338322830E94F50E0F9064
:100570000F900F900F900E94BB0A9C0100D000D0FA
:10058000EDB7FEB7319687E291E0918380833383A4
:1005900022830E94F50E0F900F900F900F900E94F3
:1005A000490B9C0100D000D0EDB7FEB7319687E231
:1005B00091E091838083338322830E94F50E0F9014
:1005C0000F900F900F900E94D70B9C0100D000D08D
:1005D000EDB7FEB7319687E291E091838083338354
:1005E00022830E94F50E0F900F900F900F900E94A3
:1005F00087072091AC053091AD0500D000D0EDB754
:10060000FEB7319687E291E0918380833383228322
:100610000E94F50E0F900F900F900F902091AA0559
:100620003091AB0500D000D0EDB7FEB7319687E230
:1006300091E091838083338322830E94F50E0F9093
:100640000F900F900F902091A8053091A90500D030
:1006500000D0EDB7FEB731968BE291E091838083B5
:10066000338322830E94F50E0F900F900F900F900E
:1006700000D0EDB7FEB731968EE291E09183808392
:100680000E94F50E0F900F9082EC91E00E949A016B
:10069000E0ECF0E0808188230CF02DCF0E942A0E40
:1006A0008A3139F481E090E060E00E94600E0E949F
:1006B00066050E947602CF91DF910895DF93CF9374
:1006C0000F92CDB7DEB700D0EDB7FEB7319682E31B
:1006D00091E0918380830E94F50E0F900F9000D0DF
:1006E000EDB7FEB731968CE491E0918380830E9450
:1006F000F50E0F900F9000D0EDB7FEB7319687E55D
:1007000091E0918380830E94F50E0F900F9000D0AE
:10071000EDB7FEB7319682E691E0918380830E9427
:10072000F50E0F900F9000D0EDB7FEB731968EE624
:1007300091E0918380830E94F50E0F900F9000D07E
:10074000EDB7FEB731968AE791E0918380830E94EE
:10075000F50E0F900F9019820E942A0E8983209126
:10076000B0053091B1058AE090E0B9010E94C90E50
:100770002091B0053091B1058DE090E0B9010E9463
:10078000C90E8981813399F582E090E063E60E9489
:10079000600E84E090E060E00E94600E85E090E0F2
:1007A00060E00E94600E86E090E060E00E94600ED3
:1007B00087E090E060E00E94600E83E090E064E0FB
:1007C0000E94600E00D0EDB7FEB7319686E891E04A
:1007D000918380830E94F50E0F900F9082E390E04A
:1007E0000E949A018FEC90E00E94F70DFFCF898163
:1007F000823399F582E090E063E60E94600E83E028
:1008000090E060E00E94600E85E090E060E00E9471
:10081000600E86E090E060E00E94600E87E090E06D
:1008200060E00E94600E84E090E069E00E94600E4B
:1008300000D0EDB7FEB7319681EB91E091838083D4
:100840000E94F50E0F900F9082E390E00E949A01B3
:1008500087E690E00E94F70DFFCF8981833399F5F9
:1008600082E090E063E60E94600E83E090E060E04A
:100870000E94600E84E090E060E00E94600E86E0DE
:1008800090E060E00E94600E87E090E060E00E94EF
:10089000600E85E090E063E10E94600E00D0EDB74D
:1008A000FEB731968CED91E0918380830E94F50E26
:1008B0000F900F9082E390E00E949A0183E390E012
:1008C0000E94F70DFFCF8981843399F582E090E093
:1008D00063E60E94600E83E090E060E00E94600E9C
:1008E00084E090E060E00E94600E85E090E060E0CF
:1008F0000E94600E87E090E060E00E94600E86E05B
:1009000090E066E20E94600E00D0EDB7FEB731962F
:1009100088E092E0918380830E94F50E0F900F9003
:1009200082E390E00E949A0189E190E00E94F70D35
:10093000FFCF8981853399F582E090E063E60E94DC
:10094000600E83E090E060E00E94600E84E090E042
:1009500060E00E94600E85E090E060E00E94600E22
:1009600086E090E060E00E94600E87E090E069E33E
:100970000E94600E00D0EDB7FEB7319684E392E09E
:10098000918380830E94F50E0F900F9082E390E098
:100990000E949A0180E190E00E94F70DFFCF8981CB
:1009A000813320F08981863308F4D6CE0E94660513
:1009B000D3CEDF93CF93CDB7DEB782E090E00E9435
:1009C000900E833609F06FC083E090E00E94900E95
:1009D000843081F480EC92E1A0E0B0E08093A40543
:1009E0009093A505A093A605B093A7058FEC90E082
:1009F0000E94F70D84E090E00E94900E893081F40F
:100A000080E895E2A0E0B0E08093A4059093A5056E
:100A1000A093A605B093A70587E690E00E94F70D86
:100A200085E090E00E94900E833181F480E09BE4A9
:100A3000A0E0B0E08093A4059093A505A093A6053F
:100A4000B093A70583E390E00E94F70D86E090E065
:100A50000E94900E863281F480E096E9A0E0B0E03A
:100A60008093A4059093A505A093A605B093A70530
:100A700089E190E00E94F70D87E090E00E94900EDF
:100A8000893309F580E091EEA0E0B0E08093A40501
:100A90009093A505A093A605B093A70580E190E0EB
:100AA0000E94F70D10C080E190E00E94F70D80E0F9
:100AB00091EEA0E0B0E08093A4059093A505A093EB
:100AC000A605B093A705CF91DF910895DF93CF934B
:100AD000CDB7DEB70E94BD000E94FE010E940D0846
:100AE00000D0EDB7FEB7319688E690E09183808321
:100AF0000E940A0F0F900F9000D0EDB7FEB731960D
:100B00008EE990E0918380830E940A0F0F900F90EE
:100B100000D0EDB7FEB731968DEB90E091838083E6
:100B20000E940A0F0F900F9000D0EDB7FEB73196DC
:100B300089ED90E0918380830E940A0F0F900F90BF
:100B400000D0EDB7FEB7319683EF90E091838083BC
:100B50000E940A0F0F900F9000D0EDB7FEB73196AC
:100B600083E091E0918380830E940A0F0F900F90A1
:100B70002091A4053091A5054091A6055091A705A7
:100B800000D000D000D0EDB7FEB7319680E692E0FD
:100B90009183808322833383448355830E94F50E9F
:100BA0008DB79EB706960FB6F8949EBF0FBE8DBF49
:100BB00000D0EDB7FEB7319689E191E09183808353
:100BC0000E940A0F0F900F9000D0EDB7FEB731963C
:100BD00082E391E0918380830E940A0F0F900F902F
:100BE0000E94F505CF91DF910895DF93CF930F9287
:100BF000CDB7DEB7198281E090E00E94900E80337D
:100C000009F476C00E942A0E89832091B0053091A4
:100C1000B1058AE090E0B9010E94C90E2091B005AB
:100C20003091B1058DE090E0B9010E94C90E898133
:100C3000813351F402C00E942F02E0ECF0E0808189
:100C40008823CCF70E9466058981823371F406C03F
:100C50000E943F0784E690E00E949A01E0ECF0E0F9
:100C600080818823ACF70E9466058981833351F423
:100C700002C00E94740AE0ECF0E080818823CCF787
:100C80000E9466058981843351F402C00E942908BC
:100C9000E0ECF0E080818823CCF70E946605898132
:100CA000853321F40E945E030E94660589818031AC
:100CB00011F40E94FD0889818A3139F481E090E0C5
:100CC00060E30E94600E0E94760289818F3349F4AE
:100CD0000E94CC06E0ECF0E080818823DCF70E94E3
:100CE000660589818F3F09F08DCF0E94F5058ACF77
:100CF0000E9476020F90CF91DF910895DF93CF93FA
:100D0000CDB7DEB70E9412010E942F0180ED0E9434
:100D10004B010E942F018EE30E944B010E942F0184
:100D200080E80E944B010E942F010E9424018AE06A
:100D300090E00E949A010E9412010E942F0180ED12
:100D40000E944B010E942F0186E10E944B010E94EC
:100D50002F0188E10E944B010E942F010E94240173
:100D60008AE090E00E949A010E9412010E942F01E5
:100D700080ED0E944B010E942F018EE30E944B01E7
:100D80000E942F0180E00E944B010E942F010E94CF
:100D90002401CF91DF910895DF93CF93CDB7DEB7D4
:100DA00000D0EDB7FEB7319689E692E0918380835B
:100DB0000E94F50E0F900F9000D0EDB7FEB7319660
:100DC00085E792E0918380830E94F50E0F900F904B
:100DD00000D0EDB7FEB7319684ED92E09183808329
:100DE0000E94F50E0F900F9000D0EDB7FEB7319630
:100DF00082E393E0918380830E94F50E0F900F9021
:100E000000D0EDB7FEB731968DE893E091838083F3
:100E10000E94F50E0F900F9000D0EDB7FEB73196FF
:100E20008EEE93E0918380830E94F50E0F900F90D9
:100E300000D0EDB7FEB7319688E394E091838083CC
:100E40000E94F50E0F900F9000D0EDB7FEB73196CF
:100E500086EB94E0918380830E94F50E0F900F90B3
:100E600000D0EDB7FEB7319682EF94E09183808396
:100E70000E94F50E0F900F90CF91DF910895DF93B0
:100E8000CF93CDB7DEB70E9487072091AC05309194
:100E9000AD0500D000D0EDB7FEB731968EE091E001
:100EA00091838083338322830E94F50E0F900F90ED
:100EB0000F900F902091AA053091AB0500D000D083
:100EC000EDB7FEB7319686E191E09183808333835D
:100ED00022830E94F50E0F900F900F900F9020919B
:100EE000A8053091A90500D000D0EDB7FEB7319626
:100EF0008BE395E091838083338322830E94F50EF8
:100F00000F900F900F900F90CF91DF910895DF9386
:100F1000CF9300D000D000D0CDB7DEB70E94120131
:100F20000E942F018DE30E944B010E942F018FEF41
:100F30000E9468010E942F010E9486018E830E94F8
:100F40002F018FEF0E9468010E942F010E948601ED
:100F50008D830E942F018D81282F30E08E81882F74
:100F600090E0982F8827822B932B9093AD05809348
:100F7000AC058FEF0E9468010E942F010E9486013C
:100F80008C830E942F018FEF0E9468010E942F0125
:100F90000E9486018B830E942F018B81282F30E0D5
:100FA0008C81882F90E0982F8827822B932B909309
:100FB000AB058093AA058FEF0E9468010E942F0164
:100FC0000E9486018A830E942F018FEF0E94680190
:100FD0000E942F010E94860189830E942F0189812E
:100FE000282F30E08A81882F90E0982F8827822B45
:100FF000932B9093A9058093A8058DE30E944B0144
:101000000E942F010E94240126960FB6F894DEBF9D
:101010000FBECDBFCF91DF910895DF93CF93CDB7B2
:10102000DEB70E9412010E942F018CE30E944B0147
:101030000E942F0182E00E944B010E942F0180E05C
:101040000E944B010E942F010E942401CF91DF9149
:101050000895DF93CF93CDB7DEB784E290E00E948E
:10106000300F0E94650C9C0100D000D0EDB7FEB798
:10107000319687E291E091838083338322830E94BB
:10108000F50E0F900F900F900F900E94E00C9C01B6
:1010900000D000D0EDB7FEB7319687E291E09183A2
:1010A0008083338322830E94F50E0F900F900F9060
:1010B0000F900E945B0D9C0100D000D0EDB7FEB7F1
:1010C000319687E291E091838083338322830E946B
:1010D000F50E0F900F900F900F900E94BB0A9C018D
:1010E00000D000D0EDB7FEB7319687E291E0918352
:1010F0008083338322830E94F50E0F900F900F9010
:101100000F900E94490B9C0100D000D0EDB7FEB7B4
:10111000319687E291E091838083338322830E941A
:10112000F50E0F900F900F900F900E94D70B9C011F
:1011300000D000D0EDB7FEB7319687E291E0918301
:101140008083338322830E94F50E0F900F900F90BF
:101150000F900E9487072091AC053091AD0500D01B
:1011600000D0EDB7FEB7319687E291E0918380839E
:10117000338322830E94F50E0F900F900F900F90F3
:101180002091AA053091AB0500D000D0EDB7FEB795
:10119000319687E291E091838083338322830E949A
:1011A000F50E0F900F900F900F902091A8053091A1
:1011B000A90500D000D0EDB7FEB731968BE291E0E3
:1011C00091838083338322830E94F50E0F900F90CA
:1011D0000F900F9000D0EDB7FEB731968EE291E000
:1011E000918380830E94F50E0F900F9082EC91E026
:1011F0000E949A01CF91DF910895DF93CF93CDB7ED
:10120000DEB72A970FB6F894DEBF0FBECDBF1C82A3
:101210001092AD051092AC051092AB051092AA0584
:101220001092A9051092A8050E9412010E942F0198
:101230008DE30E944B010E942F018FEF0E946801F5
:101240000E942F010E9486018A870E942F018FEF42
:101250000E9468010E942F010E94860189870E94D6
:101260002F018985282F30E08A85882F90E0982FDC
:101270008827822B932B9093AD058093AC058FEF3D
:101280000E9468010E942F010E94860188870E94A7
:101290002F018FEF0E9468010E942F010E9486019A
:1012A0008F830E942F018F81282F30E08885882F1F
:1012B00090E0982F8827822B932B9093AB058093F7
:1012C000AA058FEF0E9468010E942F010E948601EB
:1012D0008E830E942F018FEF0E9468010E942F01D0
:1012E0000E9486018D830E942F018D81282F30E07E
:1012F0008E81882F90E0982F8827822B932B9093B4
:10130000A9058093A8058DE30E944B010E942F013F
:101310000E9424012091AC053091AD058091AA0571
:101320009091AB052817390771F42091AA053091E7
:10133000AB058091A8059091A9052817390719F4E4
:101340008FEF8C8301C01C820E9412010E942F012A
:1013500086EA0E944B010E942F0180E00E944B010F
:101360000E942F010E9424010E9412010E942F015D
:1013700087EA0E944B010E942F018FEF0E946801B3
:101380000E942F010E9486018B830E942F0180E022
:101390000E9468010E942F010E9486018A830E9498
:1013A0002F010E942401ACEBB0E0ECEBF0E0808177
:1013B0008B7F8C93ACEBB0E0ECEBF0E08081846051
:1013C0008C930E9412010E942F0180ED0E944B011C
:1013D0000E942F0180E00E944B010E942F010E9479
:1013E000120181ED0E944B010E942F0180E00E94BA
:1013F00068010E942F010E94860189830E942F01AB
:101400000E942401ACEBB0E0ECEBF0E080818B7F3C
:101410008C93ACEBB0E0ECEBF0E0808184608C93DB
:101420008981893669F400D0EDB7FEB7319682E440
:1014300095E0918380830E94F50E0F900F900CC071
:1014400000D0EDB7FEB731968EE495E091838083AE
:101450000E94F50E0F900F908C81882369F400D0C4
:10146000EDB7FEB7319689E595E0918380830E94C0
:10147000F50E0F900F900CC000D0EDB7FEB731966F
:1014800085E695E0918380830E94F50E0F900F9082
:101490008B81853E69F400D0EDB7FEB7319680E7C9
:1014A00095E0918380830E94F50E0F900F900CC001
:1014B00000D0EDB7FEB731968DE795E0918380833C
:1014C0000E94F50E0F900F90E0ECF0E080818823F1
:1014D000DCF70E9466052A960FB6F894DEBF0FBEB1
:1014E000CDBFCF91DF910895DF93CF93CDB7DEB716
:1014F0000E94BB0A9C0100D000D0EDB7FEB7319628
:1015000089E895E091838083338322830E94F50EDE
:101510000F900F900F900F900E94490B9C0100D0EC
:1015200000D0EDB7FEB7319682E995E091838083D4
:10153000338322830E94F50E0F900F900F900F902F
:101540000E94D70B9C0100D000D0EDB7FEB73196BA
:101550008BE995E091838083338322830E94F50E8B
:101560000F900F900F900F9084E190E00E949A01ED
:10157000CF91DF910895DF93CF9300D000D000D0BA
:10158000CDB7DEB7ACEBB0E0ECEBF0E080818B7F69
:101590008C93ACEBB0E0ECEBF0E0808184608C935A
:1015A0000E9412010E942F0180ED0E944B010E94B7
:1015B0002F018DE10E944B010E942F010E94120118
:1015C00081ED0E944B010E942F0180E00E94680182
:1015D0000E942F010E948601882F90E09E838D83B8
:1015E0000E942F010E942401ACEBB0E0ECEBF0E094
:1015F00080818B7F8C93ACEBB0E0ECEBF0E08081F2
:1016000084608C930E9412010E942F0180ED0E9441
:101610004B010E942F018EE10E944B010E942F017D
:101620000E94120181ED0E944B010E942F0180E077
:101630000E9468010E942F010E948601882F90E07D
:101640009C838B830E942F010E9424018D819E81A7
:10165000382F22278B819C81822B932B9A8389831D
:10166000ACEBB0E0ECEBF0E080818B7F8C93ACEBEB
:10167000B0E0ECEBF0E0808184608C9389819A810A
:1016800026960FB6F894DEBF0FBECDBFCF91DF9187
:101690000895DF93CF9300D000D000D0CDB7DEB750
:1016A000ACEBB0E0ECEBF0E080818B7F8C93ACEBAB
:1016B000B0E0ECEBF0E0808184608C930E9412013A
:1016C0000E942F0180ED0E944B010E942F018FE1AB
:1016D0000E944B010E942F010E94120181ED0E9485
:1016E0004B010E942F0180E00E9468010E942F019F
:1016F0000E948601882F90E09E838D830E942F0197
:101700000E942401ACEBB0E0ECEBF0E080818B7F39
:101710008C93ACEBB0E0ECEBF0E0808184608C93D8
:101720000E9412010E942F0180ED0E944B010E9435
:101730002F0180E20E944B010E942F010E941201A2
:1017400081ED0E944B010E942F0180E00E94680100
:101750000E942F010E948601882F90E09C838B833A
:101760000E942F010E9424018D819E81382F222703
:101770008B819C81822B932B9A838983ACEBB0E085
:10178000ECEBF0E080818B7F8C93ACEBB0E0ECEB8A
:10179000F0E0808184608C9389819A8126960FB6CF
:1017A000F894DEBF0FBECDBFCF91DF910895DF93D8
:1017B000CF9300D000D000D0CDB7DEB7ACEBB0E017
:1017C000ECEBF0E080818B7F8C93ACEBB0E0ECEB4A
:1017D000F0E0808184608C930E9412010E942F01AE
:1017E00080ED0E944B010E942F0181E20E944B017B
:1017F0000E942F010E94120181ED0E944B010E9464
:101800002F0180E00E9468010E942F010E94860142
:10181000882F90E09E838D830E942F010E942401D7
:10182000ACEBB0E0ECEBF0E080818B7F8C93ACEB29
:10183000B0E0ECEBF0E0808184608C930E941201B8
:101840000E942F0180ED0E944B010E942F0182E235
:101850000E944B010E942F010E94120181ED0E9403
:101860004B010E942F0180E00E9468010E942F011D
:101870000E948601882F90E09C838B830E942F0119
:101880000E9424018D819E81382F22278B819C818B
:10189000822B932B9A838983ACEBB0E0ECEBF0E0E6
:1018A00080818B7F8C93ACEBB0E0ECEBF0E080813F
:1018B00084608C9389819A8126960FB6F894DEBF56
:1018C0000FBECDBFCF91DF910895DF93CF9300D0AE
:1018D00000D00F92CDB7DEB70E9412010E942F01F7
:1018E00086EA0E944B010E942F0182E30E944B0175
:1018F0000E942F010E9424010E9412010E942F01C8
:1019000087EA0E944B010E942F018FEF0E9468011D
:101910000E942F010E9486018B830E942F0180E08C
:101920000E9468010E942F010E9486018D830E94FF
:101930002F010E9424010E9412010E942F0186EAB9
:101940000E944B010E942F0183E30E944B010E94E1
:101950002F010E9424010E9412010E942F0187EA98
:101960000E944B010E942F018FEF0E9468010E948C
:101970002F010E9486018C830E942F0180E00E942B
:1019800068010E942F010E9486018D830E942F0111
:101990000E9424018B81282F30E08C81882F90E0D9
:1019A000982F8827822B932B9A83898389819A8108
:1019B0000F900F900F900F900F90CF91DF9108959F
:1019C000DF93CF9300D000D00F92CDB7DEB70E9447
:1019D00012010E942F0186EA0E944B010E942F01F2
:1019E00084E30E944B010E942F010E9424010E9467
:1019F00012010E942F0187EA0E944B010E942F01D1
:101A00008FEF0E9468010E942F010E9486018B8344
:101A10000E942F0180E00E9468010E942F010E9415
:101A200086018D830E942F010E9424010E941201D1
:101A30000E942F0186EA0E944B010E942F0185E33C
:101A40000E944B010E942F010E9424010E9412015A
:101A50000E942F0187EA0E944B010E942F018FEF05
:101A60000E9468010E942F010E9486018C830E94BF
:101A70002F0180E00E9468010E942F010E948601D0
:101A80008D830E942F010E9424018B81282F30E03A
:101A90008C81882F90E0982F8827822B932B9A8314
:101AA000898389819A810F900F900F900F900F90EA
:101AB000CF91DF910895DF93CF9300D000D00F92A4
:101AC000CDB7DEB70E9412010E942F0186EA0E9464
:101AD0004B010E942F0186E30E944B010E942F01BF
:101AE0000E9424010E9412010E942F0187EA0E9495
:101AF0004B010E942F018FEF0E9468010E942F016D
:101B00000E9486018B830E942F0180E00E94680161
:101B10000E942F010E9486018D830E942F010E9446
:101B200024010E9412010E942F0186EA0E944B01AB
:101B30000E942F0187E30E944B010E942F010E9407
:101B400024010E9412010E942F0187EA0E944B018A
:101B50000E942F018FEF0E9468010E942F010E94B6
:101B600086018C830E942F0180E00E9468010E9400
:101B70002F010E9486018D830E942F010E94240163
:101B80008B81282F30E08C81882F90E0982F882738
:101B9000822B932B9A83898389819A810F900F904E
:101BA0000F900F900F90CF91DF910895DF93CF9317
:101BB000CDB7DEB7E4E2F0E080E68083E7E2F0E074
:101BC00080E18083EAE2F0E082E08083E8E2F0E016
:101BD00080E380830E94BD000E94FE010E940D08E8
:101BE0000E947E060E94D904CF91DF910895DF9371
:101BF000CF9300D000D0CDB7DEB79C838B838B8191
:101C00009C819A838983E5ECF0E089819A81892F10
:101C1000990F990B8083E4ECF0E089818083E0ECFC
:101C2000F0E082E08083E1ECF0E088E18083E2ECA8
:101C3000F0E086E0808380E091E09093B1058093AE
:101C4000B0058B819C810F900F900F900F90CF91DA
:101C5000DF910895DF93CF93CDB7DEB7E0ECF0E0EE
:101C600080818823DCF7E6ECF0E08081CF91DF9182
:101C70000895DF93CF9300D00F92CDB7DEB789835D
:101C80007B836A8389818A3031F42A813B818DE0AC
:101C9000B9010E94390EE0ECF0E08081882F90E0DD
:101CA000807290700097B9F3E6ECF0E08981808350
:101CB00080E090E00F900F900F90CF91DF9108950A
:101CC000DF93CF9300D00F92CDB7DEB79A8389838D
:101CD0006B83EFE3F0E08081882F90E0827090705A
:101CE0000097B9F7E1E4F0E089819A8191838083DC
:101CF000E0E4F0E08B818083AFE3B0E0EFE3F0E07D
:101D0000808184608C93AFE3B0E0EFE3F0E080810A
:101D100082608C930F900F900F90CF91DF91089578
:101D2000DF93CF9300D0CDB7DEB79A838983EFE3FB
:101D3000F0E08081882F90E0827090700097B9F772
:101D4000E1E4F0E089819A8191838083AFE3B0E0A0
:101D5000EFE3F0E0808181608C93E0E4F0E080814B
:101D60000F900F90CF91DF910895AA1BBB1B51E1FB
:101D700007C0AA1FBB1FA617B70710F0A61BB70BFB
:101D8000881F991F5A95A9F780959095BC01CD01A0
:101D900008950F931F93CF93DF938C01EB018B81F9
:101DA00081FF1BC082FF0DC02E813F818C819D81F0
:101DB0002817390764F4E881F9810193F983E883EE
:101DC00006C0E885F985802F0995892B31F48E812D
:101DD0009F8101969F838E8302C00FEF1FEFC80182
:101DE000DF91CF911F910F910895A0E0B0E0EBEF4C
:101DF000FEE00C949811FE013596619171918091ED
:101E0000B0059091B105AF010E94370F2096E2E036
:101E10000C94B411A0E0B0E0E0E1FFE00C94981164
:101E2000FE01359661917191A091B005B091B10517
:101E300013968C911397886013968C938091B005BC
:101E40009091B105AF010E94370FE091B005F0917C
:101E5000B1052381277F23832096E2E00C94B411FF
:101E60006091B0057091B1050E94C90E0895ABE074
:101E7000B0E0EDE3FFE00C9488113C012B015A0126
:101E8000FC0117821682838181FD03C06FEF7FEF13
:101E9000C6C19AE0892E1E010894211C311CF30151
:101EA0002381F20123FD859123FF81912F01882356
:101EB00009F4B2C1853239F423FD859123FF819164
:101EC0002F01853229F490E0B3010E94C90EE7CFBB
:101ED000982FFF24EE249924FFE1FF15D0F09B32C8
:101EE00069F09C3228F4903259F0933291F40EC08C
:101EF0009D3249F0903369F441E024C052E0F52A64
:101F000084E0F82A28C098E0F92A25C0E0E1FE2AFA
:101F100022C0F7FC29C0892F80538A3070F4F6FE66
:101F200005C0989C902C1124980E15C0E89CE02CBC
:101F30001124E80EF0E2FF2A0EC09E3229F4F6FCCE
:101F40006BC140E4F42A07C09C3619F450E8F52A26
:101F500002C0983649F4F20123FD959123FF919137
:101F60002F01992309F0B8CF892F8554833018F0B9
:101F70008052833038F444E050E0A40EB51E5FE395
:101F800059830FC0933631F0933779F0933509F0C8
:101F900056C020C0F5018081898342E050E0A40E44
:101FA000B51E610101E010E012C0F501C080D180D2
:101FB000F6FC03C06FEF7FEF02C0692D70E042E0D6
:101FC00050E0A40EB51EC6010E941F118C015FE7F0
:101FD000F52214C0F501C080D180F6FC03C06FEF7C
:101FE0007FEF02C0692D70E042E050E0A40EB51E04
:101FF000C6010E9414118C0150E8F52AF3FE07C0B7
:102000001AC080E290E0B3010E94C90EEA948E2DBE
:1020100090E008171907A8F30EC0F601F7FC8591A8
:10202000F7FE81916F0190E0B3010E94C90EE110AB
:10203000EA94015010400115110579F7EAC0943671
:1020400011F0993669F5F7FE08C0F501208131815C
:102050004281538184E090E00AC0F5018081918142
:102060009C01442737FD4095542F82E090E0A80E54
:10207000B91E9FE6F92257FF09C05095409530954B
:1020800021953F4F4F4F5F4FE0E8FE2ACA01B9014B
:10209000A1012AE030E00E942A11D82ED21840C0B7
:1020A000953729F41F2D1F7E2AE030E01DC01F2D1B
:1020B000197F9F3661F0903720F4983509F0ACC055
:1020C0000FC0903739F0983709F0A6C004C028E057
:1020D00030E00AC0106114FD146020E130E004C05B
:1020E00014FD166020E132E017FF08C0F5016081A1
:1020F00071818281938144E050E008C0F5018081C4
:102100009181BC0180E090E042E050E0A40EB51E59
:10211000A1010E942A11D82ED2188FE7F82EF122A1
:10212000F6FE0BC05EEFF522D91438F4F4FE07C0BA
:10213000F2FC05C08FEEF82202C01D2D01C0192D42
:10214000F4FE0DC0FE01ED0DF11D8081803319F408
:1021500099EEF92208C01F5FF2FE05C003C08F2D63
:10216000867809F01F5F0F2DF3FC14C0F0FE0FC03E
:102170001E1510F09D2C0BC09D2C9E0C911A1E2D2F
:1021800006C080E290E0B3010E94C90E1F5F1E15D9
:10219000C0F304C01E1510F4E11A01C0EE2404FFC0
:1021A0000FC080E390E0B3010E94C90E02FF1DC082
:1021B00001FD03C088E790E00EC088E590E00BC009
:1021C000802F867891F001FF02C08BE201C080E28F
:1021D000F7FC8DE290E0B3010E94C90E06C080E3D7
:1021E00090E0B3010E94C90E9A94D914C0F3DA9416
:1021F000F101ED0DF11D808190E0B3010E94C90E47
:10220000DD20A9F706C080E290E0B3010E94C90E6C
:10221000EA94EE20C1F743CEF30166817781CB01CA
:102220002B96E2E10C94A411FC01059061507040E2
:102230000110D8F7809590958E0F9F1F0895FC018F
:102240006150704001900110D8F7809590958E0FE5
:102250009F1F0895FA01AA27283051F1203181F1FA
:10226000E8946F936E7F6E5F7F4F8F4F9F4FAF4F9E
:10227000B1E03ED0B4E03CD0670F781F891F9A1FB1
:10228000A11D680F791F8A1F911DA11D6A0F711D65
:10229000811D911DA11D20D009F468943F912AE071
:1022A000269F11243019305D3193DEF6CF01089559
:1022B000462F4770405D4193B3E00FD0C9F7F6CF8A
:1022C000462F4F70405D4A3318F0495D31FD405252
:1022D000419302D0A9F7EACFB4E0A69597958795E8
:1022E00077956795BA95C9F70097610571050895C7
:1022F0009B01AC010A2E0694579547953795279573
:10230000BA95C9F7620F731F841F951FA01D08950A
:102310002F923F924F925F926F927F928F929F92F5
:10232000AF92BF92CF92DF92EF92FF920F931F93E3
:10233000CF93DF93CDB7DEB7CA1BDB0B0FB6F89494
:10234000DEBF0FBECDBF09942A88398848885F84D4
:102350006E847D848C849B84AA84B984C884DF8045
:10236000EE80FD800C811B81AA81B981CE0FD11D29
:102370000FB6F894DEBF0FBECDBFED010895F894FF
:02238000FFCF8D
:102382000000000200000000390E00000000783D4D
:102392002534642C2000793D2534642C20007A3DBC
:1023A200253464200A0D0025642C00256400230ACC
:1023B2000D000A0D426175642052617465205365F7
:1023C2006C656374204D656E750A0D005B315D208E
:1023D200343830300A0D005B325D20393630300A35
:1023E2000D005B335D2031393230300A0D005B3431
:1023F2005D2033383430300A0D005B355D203537CF
:102402003630300A0D00216368616E6765206261B3
:102412007564207261746520746F203438303062C4
:1024220070732C20726573657420626F617264210F
:1024320000216368616E6765206261756420726164
:10244200746520746F20393630306270732C2072BC
:102452006573657420626F61726421002163686133
:102462006E67652062617564207261746520746FA5
:102472002031393230306270732C2072657365748A
:1024820020626F6172642100216368616E6765205A
:1024920062617564207261746520746F2033383410
:1024A20030306270732C20726573657420626F61C4
:1024B20072642100216368616E67652062617564E0
:1024C200207261746520746F203537363030627047
:1024D200732C20726573657420626F6172642100CF
:1024E200256C646270730A0D0048454C50204D45BE
:1024F2004E550A0D005B315D2073656E6420617379
:10250200636969203120746F20676574206F757468
:102512007075742066726F6D2074686520616363E4
:10252200656C65726F6D6574657228782C792C7A8A
:10253200292E2048697420616E79206B6579207498
:102542006F2072657475726E20746F206D656E7582
:102552002E0A0D005B325D2073656E642061736329
:102562006969203220746F20676574206F757470FA
:1025720075742066726F6D20746865206D61676E78
:1025820065746F6D6574657228782C792C7A292EA2
:102592002048697420616E79206B657920746F2000
:1025A20072657475726E20746F206D656E752E0A79
:1025B2000D005B335D2073656E642061736369692E
:1025C200203320746F20676574206F757470757482
:1025D2002066726F6D20746865206779726F73630D
:1025E2006F706528782C792C7A292E2048697420FE
:1025F200616E79206B657920746F207265747572D3
:102602006E20746F206D656E752E0A0D005B345D51
:102612002073656E64206173636969203420746F6E
:10262200206765742074686520726177206F757405
:102632007075742066726F6D20616C6C206F6620FD
:102642007468652073656E736F72732E20486974A7
:1026520020616E79206B657920746F2072657475C4
:10266200726E20746F206D656E752E0A0D002A2A17
:102672002A2052617720666F726D6174202724616F
:102682006363656C782C616363656C792C61636349
:10269200656C7A2C6779726F782C6779726F792CF6
:1026A2006779726F7A2C6D6167782C6D6167792C0E
:1026B2006D61677A230A0D005B355D2073656E6478
:1026C200206173636969203520746F206765742007
:1026D20074686520352063686F6963657320666F6F
:1026E2007220626175642072617465732E20526576
:1026F200736574207465726D696E616C20616E64BD
:1027020020626F6172642061667465722063686121
:102712006E67652E2048697420616E79206B657939
:1027220020746F2072657475726E20746F206D65EF
:102732006E752E0A0D005B6374726C2D705D2063E2
:1027420074726C2D702074657374732074686520C4
:10275200616363656C65726F6D6574657220616E2D
:1027620064206D61676E65746F6D657465722E0AA3
:102772000D005B6374726C2D7A5D206374726C2B36
:102782007A20617420616E7974696D652077696C55
:102792006C20746F67676C65206265747765656E1F
:1027A20020726177206F757470757420616E642079
:1027B200746865206D656E750A0D007A3D25640AA0
:1027C2000D004954473A20474F4F440A0D004954DF
:1027D200473A204241440A0D00484D433A20474FB0
:1027E2004F440A0D00484D433A204241440A0D002D
:1027F2004144584C3A20474F4F440A0D0041445837
:102802004C3A204241440A0D00783D202535642C83
:102812002000793D202535642C20007A3D20253585
:04282200640A0D0037
:00000001FF
